:020000040800F2
:2000000000800020C12C0008A30A0008A50A0008A70A0008A90A0008AB0A000800000000AE
:20002000000000000000000000000000AD0A0008AF0A000800000000B10A0008B30A0008B8
:20004000112D0008112D0008112D0008112D0008112D0008112D0008112D0008112D000870
:20006000112D0008112D0008112D0008112D0008112D0008112D0008112D0008112D000850
:20008000112D0008112D0008112D0008112D000800000000112D0008112D0008112D000876
:2000A000112D0008112D0008112D0008112D0008112D0008112D0008112D0008112D000810
:2000C000112D0008112D0008112D0008112D0008112D0008112D0008112D0008112D0008F0
:2000E000112D0008112D0008112D0008112D0008112D00080000000000000000112D00085C
:20010000112D0008112D0008112D0008112D0008112D0008112D0008112D0008112D0008AF
:20012000112D0008112D0008112D0008112D0008112D0008112D000810B5054C237833B97E
:20014000044B13B10448AFF300800123237010BD1000002000000000682D000808B5034BC2
:200160001BB103490348AFF3008008BD0000000014000020682D000853B94AB9002908BF65
:2001800000281CBF4FF0FF314FF0FF3000F074B9ADF1080C6DE904CE00F006F8DDF804E0E1
:2001A000DDE9022304B070472DE9F047089E0D4604468846002B4DD18A42944668D9B2FAAF
:2001C00082F252B101FA02F3C2F1200120FA01F10CFA02FC41EA030894404FEA1C45210C03
:2001E000B8FBF5FE1FFA8CF705FB1E8341EA03430EFB07F199420BD91CEB03030EF1FF30B0
:2002000080F01E81994240F21B81AEF1020E63445B1AA4B2B3FBF5F005FB103344EA0344BA
:2002200000FB07F7A7420AD91CEB040400F1FF3380F00881A74240F2058164440238E41B4C
:2002400040EA0E4000211EB1D4400023C6E90043BDE8F0878B4208D9002E00F0EE80002196
:20026000C6E900050846BDE8F087B3FA83F100294AD1AB4202D3824200F2F980841A65EB1C
:20028000030301209846002EE2D0C6E90048DFE702B9FFDEB2FA82F2002A40F09180A1EB0D
:2002A0000C054FEA1C471FFA8CFE0121B5FBF7F307FB1350250C45EA00450EFB03F0A84242
:2002C00008D91CEB050503F1FF3802D2A84200F2CB8043462D1AA4B2B5FBF7F007FB1055E2
:2002E00044EA05440EFB00FEA64508D91CEB040400F1FF3502D2A64500F2BB802846A4EB97
:200300000E0440EA03409EE7C1F120078B4022FA07FC4CEA030C20FA07F405FA01F31C436A
:20032000FD404FEA1C4900FA01F3B5FBF9F8200C1FFA8CFE09FB185540EA054508FB0EF09E
:20034000A84202FA01F20BD91CEB050508F1FF3A80F08880A84240F28580A8F102086544B8
:200360002D1AA4B2B5FBF9F009FB105544EA054500FB0EFEAE4508D91CEB050500F1FF3456
:200380006CD2AE456AD90238654440EA0840A0FB0294A5EB0E05A542C846A64656D353D093
:2003A0005EB1B3EB080265EB0E0505FA07F722FA01F3CD401F43C6E900750021BDE8F08746
:2003C000C2F1200320FA03F10CFA02FC25FA03F395400D434FEA1C471FFA8CFEB3FBF7F126
:2003E00007FB11302B0C43EA004301FB0EF0984204FA02F408D91CEB030301F1FF382FD233
:2004000098422DD9023963441B1AADB2B3FBF7F007FB103345EA034500FB0EF3AB4208D96B
:200420001CEB050500F1FF3816D2AB4214D902386544ED1A40EA014138E73146304607E771
:200440008646E5E61846FAE64B45A9D2B9EB020864EB0C0E0138A3E74046EAE7204694E7AA
:200460004146D1E7D0467BE7023B654432E7084609E76444023842E7704700BF70B50D4D88
:200480000D4C641BA4100026A64209D10B4D0C4C02F06AFC641BA4100026A64205D170BD9C
:2004A00055F8043B98470136EEE755F8043B98470136F2E770300008703000087030000852
:2004C0007430000802440346934200D1704703F8011BF9E710B594B0002404943C22214603
:2004E00005A8FFF7EFFF23E000243EE0013C14AB1C44002304F8403C4B4904A802F01AFCE7
:2005000050B14A4904A802F015FC28B1484904A802F010FC002847D1464800F0ADF9464892
:2005200000F0AAF94022002104A8FFF7CBFF0024424B1B68DA6912F0080F01D008221A6232
:2005400040F6FF7301220DF10F013C4800F0D0FF0028EDD1631C9BB214AA14449DF80F20F3
:2005600004F8402C3F2BBFD81C46631E14AA134413F8403C0D2B01D00A2BD9D1304A01AB85
:2005800092E8030083E8030003222E4904A802F0C0FB0028AAD003222B4904A802F0B9FBEE
:2005A0000028A3D00024C3E7284904A802F0C2FB90B1274904A802F0BDFBD0B1254904A864
:2005C00002F0B8FBF0B1244904A802F0B3FB30BB224800F051F9A5E7214800F04DF9214BF6
:2005E00001221A704FF001311F4800F0DFF914B010BD1E4800F040F900F034FA1C4800F01C
:200600003BF98FE7BFF34F8F1A49CA6802F4E062194B1343CB60BFF34F8F00BFFDE717485C
:2006200000F02AF97EE700BFAC2D0008B82D0008C42D000800500008D42D000878000020C3
:20064000802D0008A42D0008A82D0008D82D0008002E00084C2E0008582E0008682E00083E
:20066000E42D00082C00002004400008082E00081C2E000800ED00E00400FA05742E0008BF
:2006800008B5064B1B7813B1012B03D008BDFFF721FFFBE700F0BCF9F8E700BF2C000020AA
:2006A00072B6FEE700B59BB04822002108A8FFF709FF002302930393049305930693079344
:2006C00015490A6822F4C06242F400720A600A6802F4C0620192019A2022089201221092A7
:2006E0001193B0221292139308A801F0ADF978B94F230293002303930493059306930793A0
:20070000022102A801F0DCFC20B91BB05DF804FBFFF7C6FFFFF7C4FF0004005808B502F0CC
:20072000A7FAFFF7BFFF00F0CDF9134B1B68B3F15A3F0AD0104B1B68B3F15A3F16D10F485D
:2007400000F09AF8FFF79CFFFCE70D4B1A680D4B1340B3F1005FEDD1074B5B68B3F1013F64
:20076000E8D000F007F900F00FF9E3E74FF05A31014800F01BF9E2E700400008882E000829
:20078000006000080000FE2F10B584460378302B03D000242046234654E04378782B35D002
:2007A000582B36D00024204623464BE02401A3F1300E5FFA8EFEBEF1090F21D8303B1C442B
:2007C00001300A2815D81CF8003093B1A3F14102D2B2052AEAD9A3F1610E5FFA8EFEBEF15D
:2007E000050FE3D9A3F1300E5FFA8EFEBEF1090FDCD91CF80030002B3BD10C60012010BD21
:20080000052A01D8373BDAE7573BD8E700240220D7E700240220D4E76B2A1ED04B2A1CD063
:200820006D2A20D04D2A1ED0A2F1300E5FFA8EFEBEF1090FE3D804EB840402EB4402A2F157
:20084000300401330A2BDAD80028D8D11CF80320002AE1D10C600120F3E7002BE0D0A4027D
:200860000C600120EDE7002BDED024050C600120E7E70020C3E7000008B50146002201E0E9
:20088000013292B28B5C002BFAD16423014800F0C0FD08BD7800002000B583B08DF80700B6
:2008A000094BD3F88430A02B09D0642301220DF10701054800F0ADFD03B05DF804FB024BD6
:2008C0002022C3F88420F0E77800002000F17840C00A704710B584B004460023039301F0F1
:2008E00095FE0E4B4FF400421A612046FFF7EEFFC4F1006303F55C33DB0A022200920190F8
:20090000029303A9684601F065FF28B9002401F095FE204604B010BD0124F8E70040005887
:20092000F0B583B005460C46174601F06FFE002602E0083508340236BE4215D26B462068AE
:20094000616803C3DDE900232946012001F0BAFE0028F0D128686A680099019B9A4208BFC3
:200960008842E6D0032400E0002401F067FE204603B0F0BD08B5034800F0F0FA02F029F9BA
:2009800008BD00BF7800002008B5054A536805490B6005490B60126882F30888984708BDDF
:2009A00000600008300000203400002070B588B004460D4600230793134ED6E90023CDE97B
:2009C000042301F023FE114B4FF400421A613046FFF77CFF0223019302900123039307A9E6
:2009E00001A801F0F7FE50B9B4420AD00595DDE904230549012001F065FE01F01FFE08B07F
:200A000070BD0495F3E700BF004000080040005800B583B00023019301A800F0ABF910B1FA
:200A200003B05DF804FB4FF05A310A48FFF7BEFF4FF002310848FFF7B9FF084B1A68084B48
:200A40001340B3F1005FEBD1FFF794FFFFF79CFFE6E700BF004000080440000800600008E2
:200A60000000FE2F08B54FF05A310A48FFF79EFF094B1A68094B1340B3F1005F00D008BDC8
:200A8000044B5B68B3F1013FF9D0FFF773FFFFF77BFFF4E700400008006000080000FE2F07
:200AA0007047FEE7FEE7FEE7FEE7FEE770477047704708B502F0F2F802F0FCF800F032FA46
:200AC00008BD704708B51748174B03604FF4E133436000238360C36003610C22426183617D
:200AE000C36103624362836200F0D2FD70B900210C4800F046FE60B900210A4800F066FE72
:200B000050B9084800F01EFE48B908BDFFF7C8FDEDE7FFF7C5FDEFE7FFF7C2FDF1E7FFF70A
:200B2000BFFDF2E7780000200044004010B596B00446002111911291139114911591382200
:200B400003A8FFF7BFFC2268194B9A4201D016B010BD022303934FF44023059303A801F076
:200B6000E1FB10BB4FF0B0439A6D42F400329A659A6D02F400320292029ADA6C42F0010254
:200B8000DA64DB6C03F001030193019B0C231193022312930023139314930723159311A910
:200BA0004FF0904001F056FED1E7FFF779FDD9E70044004008B50268074B9A4200D008BD8F
:200BC0004FF0B042936D23F4003393650C214FF0904001F011FFF2E700440040BFF34F8F78
:200BE0000549CA6802F4E062044B1343CB60BFF34F8F00BFFDE700BF00ED00E00400FA05AB
:200C000041F4807106E080F4815080F0010011F4803F09D14000490011F4807F00D00130E6
:200C200010F4803FF3D0EEE780B2704738B504464518002004E014F8011B80B2FFF7E0FFA9
:200C4000AC42F8D3002180B2FFF7DAFF0021FFF7D7FF38BD2DE9F04182B006460C46154665
:200C600000230B60134601220DF10701404800F03FFC8046002872D19DF80710182919D8A2
:200C80004BB2002B48D0013917290FD8DFE801F048310E0C0E0E0E0E0E0E0E0E0E0E0E0EC0
:200CA0000E0E0E0E0E0E0E3400270AE04FF00108002706E0412935D0612937D14FF00208EE
:200CC00000279DF8073033707F2F49D92B463A1DB11C274800F00CFC8046002845D1B27884
:200CE000F378DB43DBB29A422AD04FF00108002736E04FF48067E4E72B4601220DF10701F4
:200D00001B4800F0F5FBA8B99DF80730182B15D04FF001080027D4E74FF001080027D0E7EB
:200D20008027CEE74FF002080027CAE74FF001080027C6E74FF001080027C2E70227C0E732
:200D4000F3191A795D7905EB02253946301DFFF76DFFA84204D04FF00108002700E00027A5
:200D60002760404602B0BDE8F0810027F8E700BF780000202DE9F04F89B001904FF00008DB
:200D80004646DFF888B1C1464546C246BAF1000F40F0B880002E40F0B5805D4B00221A7014
:200DA000574685E0079D3DB1022D0AD10620FFF773FD3D4602267BE00620FFF76DFD012755
:200DC00076E0544B9A78524B1B789A420BD1002B53D1504B1B79CBB90620FFF75DFD3D4629
:200DE0000127BA4664E01520FFF756FD3D465FE00133494881540132197809B13F2AF7D9F6
:200E000045490020885401333A4608E03A46434BF2E7013308A8104400F8181C013219789D
:200E2000202901D00F2AF4D908AB1A44002302F8183C06A902A8FFF7A7FC069A384B9A421F
:200E400013D83248FFF746FD069B019A13600620FFF722FD4320FFF71FFD2D4A137801335F
:200E600013703D464FF0010922E01820FFF714FD1820FFF711FD0526E3E7AA0827495846F1
:200E8000FFF74EFD28B9079B9B440620FFF704FDE3E71820FFF700FD1820FFF7FDFC04264C
:200EA000DBE71820FFF7F8FC1820FFF7F5FC2646002F7FF46BAF002E7FF468AF4FF4FA72A0
:200EC00007A91448FFF7C6FE044600283FF46AAF0228E6D0B9F1000F00D00135052D07D9DD
:200EE0001820FFF7D9FC1820FFF7D6FC0226DFE74320FFF7D1FC08F10108B8F13B0FD7D936
:200F0000FFF76CFE304609B0BDE8F08F006000080E05002008010020380000200C010020D5
:200F20000110030008B50A4BA3FB00231B0B43F6982202FB130343B9064B1B782BB1064A92
:200F40001278934202D0044A137008BDFFF746FE73B2E7450E0500200F050020E8B138B552
:200F600005462423C0F884300268136823F001031360036800241C6003685C6003689C606B
:200F8000FFF718FEC5F88C40C5F88440C5F88840EC6685F88040204638BD012070470000F4
:200FA00070B50446016883680269134342691343C269134308689D4A024013430B60226847
:200FC000536823F44053E1680B435360A1692268974B9A4201D0236A1943936823F06E4397
:200FE00023F430630B4393602268D36A23F00F03616A0B43D36223688E4A93421CD08E4AD0
:20100000934231D08A4A93424BD0102288498B4268D0E069B0F5004F00F0A580082A00F2B8
:201020001F81DFE812F0D300F500D1001D01F8001D011D011D01FB004FF0B042D2F88820A0
:2010400002F0030242F44032A2F54032032A09D8DFE802F002043C060122D7E70422D5E716
:201060000822D3E71022D1E74FF0B042D2F8882002F00C0242F44022A2F540220C2A0ED852
:20108000DFE802F0070D0D0D090D0D0D260D0D0D0B000022BAE70422B8E70822B6E7102260
:2010A000B4E74FF0B042D2F8882002F44062B2F5006F0FD005D87AB1B2F5806F0ED10422C2
:2010C000A4E7B2F5406F0BD108229FE702229DE702229BE7022299E7002297E7102295E763
:2010E000102293E7082A00F29C80DFE802F0089A3A9A379A9A9A05004FF4004004E001F073
:20110000F1F8002800F08F80626A4C4B33F81220B0FBF2F3656805EB4501994200F294808B
:20112000B3EB053F00F29280002633463146FFF723F8090241EA106100026B08C0182A463E
:20114000334641F10001FFF717F8A0F540723C4B9A427DD82368D860304650E000F0DCFBAF
:20116000CFE73848D0E7082A74D8DFE802F0072705732A7373730B00324803E001F0B2F81F
:20118000002869D0626A2D4B33F81230B0FBF3F06268530803EB4000B0FBF2F080B2A0F10C
:2011A00010024FF6EF739A4258D820F00F03C0F3420018432368D860002020E001F0A2F88A
:2011C000DEE700F0A9FBDBE71E4803E001F08AF8002847D0626A194B33F81230B0FBF3F0CE
:2011E000636800EB5300B0FBF3F080B2A0F110024FF6EF739A4237D82368D86000200123EA
:20120000A4F86A30A4F8683000232367636770BD01F078F8DCE700F07FFBD9E74FF40040EF
:20122000D8E70120EBE70020E9E700BFF369FFCF008000400038014000440040382F0008F7
:20124000FFFC0F000024F4000120D8E70120D6E70120D4E70120D2E70020D0E70120CEE74B
:201260000120CCE70020CAE70120C8E7836A13F0010F06D00268536823F40033C16A0B433B
:201280005360836A13F0020F06D00268536823F48033016B0B435360836A13F0040F06D08F
:2012A0000268536823F48023416B0B435360836A13F0080F06D00268536823F40043816B5A
:2012C0000B435360836A13F0100F06D00268936823F48053C16B0B439360836A13F0200F4D
:2012E00006D00268936823F40053016C0B439360836A13F0400F0AD00268536823F48013B3
:20130000416C0B435360436CB3F5801F0BD0836A13F0800F06D00268536823F40023C16C6D
:201320000B43536070470268536823F4C003816C0B435360EBE72DE9F84305460F461646E9
:201340009946DDF820802C68E46937EA04030CBF4FF0010C4FF0000CB44557D1B8F1FF3FC6
:20136000F1D001F0A7FCA0EB090040452FD8B8F1000F2CD02B681A6812F0040FE3D0DA6924
:2013800012F4006FDFD04FF400621A622A6852E8003F23F4D07342E800310029F6D12A68C6
:2013A00002F1080353E8003F23F00103083242E800310029F3D12023C5F88430C5F88830F3
:2013C000C5F88C30002385F8803003201FE02A6852E8003F23F4D07342E800310029F6D172
:2013E0002A6802F1080353E8003F23F00103083242E800310029F3D12023C5F88430C5F8D9
:201400008830002385F88030032000E00020BDE8F8832DE9F04182B01E46D0F88430202BDD
:2014200058D104460D469046002957D0002A57D090F88030012B55D0012380F88030002377
:20144000C0F88C302123C0F8843001F033FC0746A4F85480A4F85680A368B3F5805F05D0B2
:201460004FF00008002384F8803014E0236913B14FF00008F6E7A8460025F3E738F8023B14
:201480002268C3F308039362B4F8562092B2013A92B2A4F85620B4F856309BB273B10096DC
:2014A0003B46002280212046FFF745FFE0B9002DE4D015F8012B23689A62E5E700963B462B
:2014C000002240212046FFF736FF78B92023C4F8843000E0022002B0BDE8F0810120FAE748
:2014E0000120F8E70220F6E70320F4E70320F2E72DE9F04383B01E46D0F88830202B40F018
:20150000818004460D46904600297FD0002A7FD090F88030012B7DD0012380F88030002346
:20152000C0F88C302222C0F88820C36601F0C2FB0746A4F85C80A4F85E80A368B3F5805FEB
:2015400006D0A3B9226972B9FF22A4F8602014E0226922B940F2FF12A4F860200DE0FF229F
:20156000A4F8602009E07F22A4F8602005E0B3F1805F0DD00022A4F86020B4F86080B3F5F2
:20158000805F0FD04FF00009002384F880301EE022691AB97F22A4F86020EEE73F22A4F80B
:2015A0006020EAE7236913B14FF00009ECE7A9460025E9E723685B6A08EA030329F8023BE5
:2015C000B4F85E2092B2013A92B2A4F85E20B4F85E309BB28BB100963B4600222021204661
:2015E000FFF7A9FEC0B9002DE4D023685A6A5FFA88F3134005F8013BE2E72023C4F88830C5
:20160000002000E0022003B0BDE8F0830120FAE70120F8E70220F6E70320F4E730B583B0C6
:2016200004460023C0F88C3001F044FB05462268126812F0080F0FD123681B6813F0040F2D
:2016400018D12023C4F88430C4F888300020E06684F8800003B030BD6FF07E43009303467C
:2016600000224FF400112046FFF765FE0028E3D00320EFE76FF07E4300932B4600224FF4D8
:2016800080012046FFF757FE0028DAD00320E1E778B310B50446D0F884300BB32423C4F8E4
:2016A00084302268136823F0010313602046FFF777FC012813D0A36ABBB92268536823F42F
:2016C000904353602268936823F02A0393602268136843F0010313602046FFF79FFF10BD56
:2016E00080F88030FFF722FAD8E72046FFF7BEFDE3E7012070470000436E2BB90123A0F8E7
:201700006A30A0F86830704730B403689A68C2F342629968490F094D6B5CDB00084C615C3C
:2017200093FBF1F3A0F86A30AB5CDB00A25C93FBF2F3A0F8683030BC704700BF582F000891
:20174000502F000890F88030012B18D0012380F880302423C0F8843003681A68196821F038
:201760000101196022F000520023436601680A602022C0F8842080F88030184670470220EE
:20178000704738B590F88030012B1DD00446012380F880302423C0F8843003681D681A6899
:2017A00022F001021A600268936823F0604319439160FFF7A1FF23681D602023C4F88430E1
:2017C000002084F8800038BD0220FCE738B590F88030012B1DD00446012380F880302423D8
:2017E000C0F8843003681D681A6822F001021A600268936823F0606319439160FFF77CFF83
:2018000023681D602023C4F88430002084F8800038BD0220FCE7000030B589B004468C46BD
:201820002A4B93E803000690ADF81C1003F1080292E803000490ADF8141001AD103393E80A
:20184000070085E80700BCF5007F07D0002314E008AA02EB830353F81C5C1EE00023022BB9
:2018600008D808AA02EB430232F8082CA242EFD20133F4E7002510E00133022B0CD808AA86
:2018800002EB430232F8102CA242F5D308AA02EB830353F81C5C00E000250D4A136823F032
:2018A00007032B43136001F005FA0446084B1B6803F00703AB4206D001F0FCF9001B022842
:2018C000F4D9032000E0002009B030BD882D00080040005810B5C0F303100C4B53F8204090
:2018E0004FF0B043D3F8083103F00F03084A52F82300B4FBF0F401F005F901460548A0FB3D
:201900000430800CFFF788FF10BD00BFF82E0008982E000883DE1B434FF0B0439968DB68CD
:2019200003F0030311F00C010AD00C2906D0042947D008293BD00022104626E0012BF6D1CA
:201940004FF0B0431B6813F008030DD04FF0B0431B6813F0080324D14FF0B042D2F8942080
:201960002E4A52F823200EE04FF0B042126812F0080F12D14FF0B043D3F89430C3F3032330
:20198000264A52F82320D1B100204FF0B0439B6803F00C030C2B1AD070474FF0B0421268EE
:2019A000EEE74FF0B0431B68C3F30313D8E74FF0B0431A6812F4801206D11948E5E710466C
:2019C000E3E700221748E0E700221648DDE74FF0B043DB6803F00303022B09D0032B08D136
:2019E0004FF0B0431B6813F4801F15D10C4A00E00C4A4FF0B043D868C0F3062000FB02F2E0
:201A0000D868C0F302100130B2FBF0F2D868400F0130B2FBF0F0BFE7024AEAE7F82E0008C3
:201A20000048E8010024F40008B5FFF775FF4FF0B0439B68C3F30313024A52F82330B0FBA1
:201A4000F3F008BD982E0008002800F01983F8B504464FF0B0439D6805F00C05DE6806F0EC
:201A60000306036813F0200F00F08F80EDB10C2D19D0236A002B00F0BC804FF0B042136871
:201A800043F00103136001F015F907464FF0B0431B6813F0020F65D101F00CF9C01B022856
:201AA000F4D90320F9E2012EE3D14FF0B0431B6813F0020F03D0236A002B00F0E382A06AC5
:201AC0004FF0B0431B6813F0080F29D04FF0B0431B6803F0F00398422AD9FFF7FBFE0028AF
:201AE00040F0D2824FF0B0431A6842F008021A601A6822F0F002A16A0A431A60616A5A6813
:201B000022F47F4242EA01225A60FFF78DFFB04B1860B04B186801F083F8002835D0BCE23E
:201B20004FF0B043D3F894301B0903F0F003D2E74FF0B0431A6842F008021A601A6822F023
:201B4000F002A16A0A431A60616A5A6822F47F4242EA01225A60A06AFFF7BCFE0028D4D0CE
:201B600001209AE24FF0B0431A6842F008021A601A6822F0F002A16A0A431A60616A5A6879
:201B800022F47F4242EA01225A60236813F0010F51D0082D45D00C2D41D04FF0B042136866
:201BA00023F48013A1680B4313606368B3F5803F63D0B3F5041F65D04FF0B0431A6822F482
:201BC00080321A601A6822F400121A606368002B63D001F06FF807464FF0B0431B6813F42B
:201BE000003F28D101F066F8C01B6428F4D9032053E24FF0B042136823F00103136001F0AB
:201C000059F807464FF0B0431B6813F0020FBCD001F050F8C01B0228F4D903203DE2032E53
:201C2000BBD14FF0B0431B6813F4003F03D06368002B00F02B82236813F0020F52D0042DC5
:201C40003DD00C2D39D02369002B00F091804FF0B042136843F48073136001F02BF80646D4
:201C60004FF0B0431B6813F4806F77D101F022F8801B0228F4D903200FE2136843F480335B
:201C80001360A3E74FF0B0431A6842F400121A601A6842F480321A6098E701F00BF807462D
:201CA0004FF0B0431B6813F4003FC4D001F002F8C01B6428F4D90320EFE1022EC3D14FF080
:201CC000B0431B6813F4806F03D02369002B00F0DF8161694FF0B042536823F0FE4343EA87
:201CE00001635360236813F0080F00F08E80A369002B71D04FF0B043D3F89430E16903F0B4
:201D00001002914211D003F00302022A00F0C28113F0010F42D14FF0B042D2F8943023F0AE
:201D20001003E1690B43C2F894304FF0B042D2F8943043F00103C2F8943000F0BBFF064610
:201D40004FF0B043D3F8943013F0020F5DD100F0B1FF801B1128F3D903209EE161694FF095
:201D6000B042536823F0FE4343EA01635360B9E74FF0B042136823F48073136000F09AFFCC
:201D800006464FF0B0431B6813F4806FAAD000F091FF801B0228F4D903207EE14FF0B0420D
:201DA000D2F8943023F00103C2F8943000F082FF06464FF0B043D3F8943013F0020FAAD0F4
:201DC00000F078FF801B1128F3D9032065E100BF00000020080000204FF0B042D2F89430CD
:201DE00023F00103C2F8943000F064FF06464FF0B043D3F8943013F0020F06D000F05AFFBB
:201E0000801B1128F3D9032047E1236813F0040F00F0B180A84B1B6813F4807F10D100F0C8
:201E200069FE00F047FF0646A34B1B6813F4807F06D100F03FFF801B0228F5D903202CE17A
:201E4000E368002B61D0852B01D0052B07D14FF0B042D2F8903043F00403C2F8903000F0F3
:201E600029FF06464FF0B042D2F8903043F00103C2F890304FF0B043D3F8903013F0020FB1
:201E800008D100F017FF801B41F288339842F1D9032002E1E368812B01D0852B1AD100F0DD
:201EA00009FF06464FF0B042D2F8903043F08003C2F890304FF0B043D3F8903013F4006FB0
:201EC00059D100F0F7FE801B41F288339842F1D90320E2E000F0EEFE06464FF0B042D2F8BE
:201EE000903023F08003C2F890304FF0B043D3F8903013F4006F3ED000F0DCFE801B41F239
:201F000088339842F1D90320C7E000F0D3FE06464FF0B042D2F8903023F08003C2F89030C0
:201F20004FF0B043D3F8903013F4006F08D000F0C1FE801B41F288339842F1D90320ACE00B
:201F400000F0B8FE06464FF0B042D2F8903023F00103C2F890304FF0B043D3F8903013F083
:201F6000020F08D000F0A6FE801B41F288339842F1D9032091E0E36A002B00F08D800C2D75
:201F800062D0022B1FD04FF0B0431A6822F080721A60DA6822F00302DA60DA6822F0885200
:201FA00022F48032DA6000F085FE04464FF0B0431B6813F0007F73D000F07CFE001B0A2831
:201FC000F4D9032069E04FF0B042136823F08073136000F06FFE05464FF0B0431B6813F043
:201FE000007F2AD14FF0B042D36834491940236B606B0343A06B43EA0023E06B0343206C0E
:202000000343606C03430B43D360136843F080731360D36843F08053D36000F04BFE0446DC
:202020004FF0B0431B6813F0007F37D100F042FE001B0A28F4D903202FE000F03BFE401B61
:202040000A28C9D9032028E0012B2BD04FF0B043DB6803F00301226B914225D103F0700233
:20206000616B8A4222D103F4FE42A16BB2EB012F1ED103F06043626C93421BD100200CE0A5
:2020800001207047012008E0012006E0012004E0012002E0012000E00020F8BD0020FCE777
:2020A0000020FAE70120F8E70120F6E70120F4E70120F2E70120F0E7000400588C80C111F9
:2020C000002800F0048170B50C460546824B1B6803F007038B4227D32B6813F0020F39D1DC
:2020E0002B6813F0400F4DD12B6813F0040F65D12B6813F0080F79D12B6813F0010F00F071
:20210000C1806B68022B00F08B80032B00F09080002B40F095804FF0B042126812F0020F27
:2021200040F094800120D1E06B4A136823F007030B43136000F0BEFD0646674B1B6803F05C
:202140000703A342C8D000F0B5FD801B0228F4D90320BBE0AB684FF0B0418A6822F0F002CD
:2021600013438B6000F0A6FD06464FF0B0439B6813F4803FB4D100F09DFD801B0228F4D9A3
:202180000320A3E069694FF0B042D2F8083123F00F0343EA1113C2F8083100F08BFD064666
:2021A0004FF0B043D3F8083113F4803F9CD100F081FD801B0228F3D9032087E0EB684FF09B
:2021C000B0418A6822F4E06213438B6000F072FD06464FF0B0439B6813F4003F88D100F014
:2021E00069FD801B0228F4D903206FE029694FF0B042936823F4605343EAC103936000F019
:2022000059FD06464FF0B0439B6813F4802F7FF473AF00F04FFD801B0228F3D9032055E077
:202220004FF0B042126812F4003F0FD101204DE04FF0B042126812F0007F07D1012045E036
:202240004FF0B042126812F4806F42D04FF0B0418A6822F0030213438B6000F02BFD0646EE
:202260004FF0B0439B6803F00C036A68B3EB820F08D000F01FFD801B41F288339842EFD917
:20228000032023E0144B1B6803F00703A34215D9114A136823F007032343136000F00AFDA3
:2022A00005460D4B1B6803F00703A34206D000F001FD401B0228F4D9032007E0FFF7B4FB51
:2022C000064B1860064B186800F0AAFC70BD012070470120FAE700BF004000580000002050
:2022E0000800002008B5FFF79FFB4FF0B0439B68C3F30223024A52F82330D84008BD00BFD4
:20230000D82E000808B5FFF78FFB4FF0B0439B68C3F3C223024A52F82330D84008BD00BF1D
:20232000D82E000870B50446036813F4803F40F0AB800025236813F0010F0AD062684FF0EE
:20234000B041D1F8883023EA124392B21343C1F88830236813F0020F0AD0A2684FF0B041EB
:20236000D1F8883023EA124392B21343C1F88830236813F0200F09D023694FF0B041D1F854
:20238000882022F440621343C1F88830236813F4007F0CD0206A4FF0B041D1F88830020CE0
:2023A000120423EA020343EA0043C1F88830236813F4806F0CD0606A4FF0B041D1F888303C
:2023C000020C120423EA020343EA0043C1F88830236813F4006F0CD0A06A4FF0B041D1F806
:2023E0008830020C120423EA020343EA0043C1F88830236813F0400F40F09E80236813F055
:20240000800F40F0AA80236813F4807F40F0B680236813F0100F0ED0E3684FF0B041D1F80D
:20242000882022F440721343C1F88830E368B3F5807F00F0B480236813F4004F0FD0236B01
:202440004FF0B041D1F8882022F040421343C1F88830236B1BB9CB6843F08073CB6023680F
:2024600013F4804F0ED0E36A4FF0B041D1F8882022F040521343C1F88830E36AB3F1005FFF
:2024800000F09280284670BD00F034FB00F012FC0546484B1B6813F4807F06D100F00AFC4E
:2024A000401B0228F5D9032500E00025002D7FF441AF4FF0B043D3F8903003F44073626BD8
:2024C0009A4224D04FF0B043D3F8902022F44072D3F8901041F48031C3F89010D3F89010A0
:2024E00021F48031C3F89010C3F8902012F0020F0FD1002D7FF41EAF636B4FF0B041D1F829
:20250000902022F440721343C1F8903012E70022ECE700F0CFFB06464FF0B043D3F89030C3
:2025200013F0020FE5D100F0C5FB801B41F288339842F1D90325DCE763694FF0B040D0F846
:202540008820190901F47F2122EA01021B0103F47F231343C0F8883050E7A3694FF0B04020
:20256000D0F88820190901F47F2122EA01021B0103F47F231343C0F8883044E7E3694FF0F4
:20258000B040D0F88820190901F47F2122EA01021B0103F47F231343C0F8883038E7CB6848
:2025A00043F08073CB6046E7CB6843F48033CB6068E700BF0004005810B4054C616941F0DB
:2025C000010161610260BFF36F8F436010BC7047004000580C4A536943F480235361EFF3E5
:2025E000108C72B6402351F8042B40F8042B013B13F0FF03F7D1044B1B6913F4803FFAD168
:202600008CF31088704700BF00400058094B5B69002B01DB00207047064B074A9A6002F110
:2026200088329A605B69002B01DB002070470120704700BF0040005823016745054B5A6932
:2026400042F000425A615B69002B01DB01207047002070470040005838B5054600F02AFBEC
:202660000446164B1B6913F4803F06D000F022FB001BA842F5D3032038BD104B1B6913F0BB
:20268000010F02D00D4A012111614CF2FA32134001D00A4A13615BB9084B1B6913F4802F76
:2026A0000AD000F007FB001BA842F5D30320E3E7034A53600120DFE70020DDE70040005831
:2026C00010050020F8B51F46154B1B78012B25D004460D461646124B01221A7000225A60C0
:2026E0004FF47A70FFF7B8FF70B9012C10D031462846FFF76FFF4FF47A70FFF7ADFF094A5F
:20270000536923EA04045461054B00221A70F8BD32463B462846FFF74FFFECE70220F6E705
:202720001005002000400058034A536943F4803343F004035361704700400058184B1B68B6
:2027400003F40073012B06D0154B1B6803F48063012B12D07047124B1A6822F400721A60AA
:202760001A6842F400621A601A6822F400621A601A6842F400721A60E6E7094B1A6822F4F4
:2027800080621A601A6842F480521A601A6822F480521A601A6842F480621A60DAE700BF61
:2027A00000400058034A536923F47E7323F002035361704700400058054A536923F47E7342
:2027C00043EAC00040F4803040F002005061704700400058F8B51E4B1B78012B35D00546D1
:2027E0000F461B4B01221A7000225A604FF47A70FFF732FF064618BB2B68042B13D04FF03E
:20280000FF333B606C686B68AA681344A34213D92046FFF7D1FF4FF47A70FFF71DFF064653
:2028200048B90134EFE7FFF77FFF4FF47A70FFF713FF064602E03C60FFF7B4FFFFF77EFFFD
:20284000034B00221A703046F8BD0226FBE700BF1005002070B5002369E085685E00032452
:20286000B44025EA0405CC68B4402C438460446824EA0C0C4C68C4F300149C4044EA0C0466
:20288000446065E0DD08083550F8256003F007044FEA840C0F2404FA0CF426EA040E0C69D1
:2028A00004FA0CF444EA0E0440F8254067E0022400E0002404FA0EF42C430CF1020C4B4DBA
:2028C00045F82C404A4CD4F88050D44325EA0206D1F804C01CF4803F01D042EA0506444DFA
:2028E000C5F88060D5F8845004EA0506D1F804C01CF4003F01D042EA05063D4DC5F8846092
:202900002D6804EA0506D1F804C01CF4801F01D042EA0506364D2E606D682C404E6816F4D3
:20292000001F01D042EA0504314A546001330A6832FA03F458D04FF0010C0CFA03FC1CEAFB
:202940000202F3D04C6804F00304013C012C84D94C6804F00304032C0CD0C4685D004FF0B8
:20296000030C0CFA05FC24EA0C0C8C68AC4044EA0C04C4604C6804F00304022C82D004683E
:202980004FEA430E4FF0030C0CFA0EFC24EA0C0C4C6804F0030404FA0EF444EA0C040460D8
:2029A0004C6814F4403FC1D04FEA930C0CF102050E4C54F8255003F003044FEA840E072464
:2029C00004FA0EF425EA0405B0F1904F3FF471AF084CA04206D004F58064A0423FF467AFF8
:2029E000072467E7012465E770BD00BF000001400008005800040048002331FA03F271D090
:202A0000F0B52EE0022500E0002505FA0CFCA44549D004685D004FF0030C0CFA05FC44EA82
:202A20000C0404604FEAD30E0EF1080E50F82E4003F00705AE000F25B54024EA050440F818
:202A40002E40846824EA0C048460446824EA02024260C26822EA0C02C260013331FA03F200
:202A60003FD001229A4012EA0107F6D09E08B51C1D4C54F8254003F0030C4FEA8C0C4FF0DD
:202A8000070E0EFA0CFE0EEA0404B0F1904FBBD0164DA84205D005F58065A842B2D007256B
:202AA000B3E70125B1E7124CD4F8805025EA0705C4F88050D4F8845025EA0705C4F88450D2
:202AC000256825EA07052560656825EA07076760054D023655F8264024EA0E0445F8264018
:202AE00097E7F0BD704700BF000001400004004800080058024A136843F48073136070472D
:202B000000040058024B186800F4C060704700BF00040058074AD36823F4E0631B041B0C7A
:202B2000000200F4E060034343F0BF6343F40033D360704700ED00E000B5194BDB68C3F391
:202B40000223C3F1070CBCF1040F28BF4FF0040C03F1040EBEF1060F18D9033B4FF0FF3E1E
:202B60000EFA0CFC21EA0C0199400EFA03F322EA0303194300280BDB0901C9B200F16040C4
:202B800000F5614080F800135DF804FB0023E5E700F00F000901C9B2024B1954F4E700BFF9
:202BA00000ED00E014ED00E00138B0F1807F0BD24FF0E0235861054AF02182F82310002089
:202BC000986107221A6170470120704700ED00E0704710B54FF0B0439A6B4FF0FF329A63DC
:202BE000D96BDA63996B00249C63D96BDC63196C1A64196C1C64596C5A64596C5C64996A97
:202C00009A62996A9C62D96ADA62D96ADC62196B1A631A6B1C63FFF7DBFF204610BD0000AF
:202C2000114B1B780BB90120704710B50446FEF7FBFE0D4B1A784FF47A73B3FBF2F3B0FBB4
:202C4000F3F0FFF7B1FF68B90F2C01D901200AE0002221464FF0FF30FFF76EFF034B1C6086
:202C6000002000E0012010BD040000200800002010B50320FFF74EFFFEF7D6FE064B18605D
:202C80000F20FFF7CDFF10B10124204610BD0446FDF706FFF9E700BF00000020034B1B7847
:202CA000034A11680B441360704700BF0400002028050020014B1868704700BF2805002016
:202CC0000D488546FDF7FDFE0C480D490D4A002302E0D458C4500433C4188C42F9D30A4A9E
:202CE0000A4C002301E013600432A242FBD3FDF7C5FBFDF713FDFEE70080002000000020C2
:202D000010000020205000081000002030050020FEE710B501390244904201D1002005E0B3
:202D2000037811F8014FA34201D0181B10BD0130F2E7000030B50B4D044614F8013B5A5D79
:202D400002F00302012A11F8012BA85C00F0030008BF2033012808BF2032981A01D1002A1B
:202D6000EBD130BD612F0008F8B500BFF8BC08BC9E467047F8B500BFF8BC08BC9E46704714
:202D8000A42D0008A82D0008120024003000000006000C00100000000000000001000000F4
:202DA0000200000061742B0041542B0061742B76657273696F6E000061742B7665723D3F82
:202DC0000000000061742B626F6F747665723D3F000000000D0A000061742B757064617441
:202DE000650000005374617274206669726D7761726520757067726164652E2E2E0D0A003A
:202E000061742B72756E000053746F7020426F6F74204D6F64650D0A000000004A756D70AB
:202E2000206661696C65642E204E6F206C6567616C206170706C69636174696F6E20646540
:202E40007465637465642E0D0A00000061742B72657365740000000061742B626F6F74736A
:202E60007461747573000000426F6F74204D6F64650D0A004154206E6F7420737570706F74
:202E800072742E0D0A0000003C424F4F54204D4F44453E0D0A0000000100000003000000F9
:202EA000050000000100000001000000060000000A000000200000000200000004000000D5
:202EC000080000001000000040000000800000000001000000020000000000000000000017
:202EE000000000000000000001000000020000000300000004000000A0860100400D030051
:202F0000801A060000350C0040420F0080841E0000093D0000127A000024F40000366E018E
:202F20000048E801006CDC0200000000000000000000000000000000010002000400060009
:202F400008000A000C00100020004000800000010804020408010101010101030701000037
:202F6000002020202020202020202828282828202020202020202020202020202020202049
:202F8000208810101010101010101010101010101004040404040404040404101010101021
:202FA000101041414141414101010101010101010101010101010101010101011010101017
:202FC0001010424242424242020202020202020202020202020202020202020210101010DD
:202FE0002000000000000000000000000000000000000000000000000000000000000000B1
:203000000000000000000000000000000000000000000000000000000000000000000000B0
:20302000000000000000000000000000000000000000000000000000000000000000000090
:20304000000000000000000000000000000000000000000000000000000000000000000070
:20306000000000000000000040D1FF7F010000005D01000800000000390100080000000018
:20308000FFFFFFFFFFFFFFFFFFFFFFFFFFFFFFFFFFFFFFFFFFFFFFFFFFFFFFFFFFFFFFFF50
:2030A000FFFFFFFFFFFFFFFFFFFFFFFFFFFFFFFFFFFFFFFFFFFFFFFFFFFFFFFFFFFFFFFF30
:2030C000FFFFFFFFFFFFFFFFFFFFFFFFFFFFFFFFFFFFFFFFFFFFFFFFFFFFFFFFFFFFFFFF10
:2030E000FFFFFFFFFFFFFFFFFFFFFFFFFFFFFFFFFFFFFFFFFFFFFFFFFFFFFFFFFFFFFFFFF0
:204000005A5A5A5A02020202FFFFFFFFFFFFFFFFFFFFFFFFFFFFFFFFFFFFFFFFFFFFFFFF48
:20402000FFFFFFFFFFFFFFFFFFFFFFFFFFFFFFFFFFFFFFFFFFFFFFFFFFFFFFFFFFFFFFFFA0
:20404000FFFFFFFFFFFFFFFFFFFFFFFFFFFFFFFFFFFFFFFFFFFFFFFFFFFFFFFFFFFFFFFF80
:20406000FFFFFFFFFFFFFFFFFFFFFFFFFFFFFFFFFFFFFFFFFFFFFFFFFFFFFFFFFFFFFFFF60
:20408000FFFFFFFFFFFFFFFFFFFFFFFFFFFFFFFFFFFFFFFFFFFFFFFFFFFFFFFFFFFFFFFF40
:205000005255495F424F4F545F302E365F53544D3332574C453543430000000000000000BF
:2050200000093D00010000001000000000000000FFFFFFFFFFFFFFFFFFFFFFFFFFFFFFFF29
:20504000FFFFFFFFFFFFFFFFFFFFFFFFFFFFFFFFFFFFFFFFFFFFFFFFFFFFFFFFFFFFFFFF70
:20506000FFFFFFFFFFFFFFFFFFFFFFFFFFFFFFFFFFFFFFFFFFFFFFFFFFFFFFFFFFFFFFFF50
:20508000FFFFFFFFFFFFFFFFFFFFFFFFFFFFFFFFFFFFFFFFFFFFFFFFFFFFFFFFFFFFFFFF30
:2050A000FFFFFFFFFFFFFFFFFFFFFFFFFFFFFFFFFFFFFFFFFFFFFFFFFFFFFFFFFFFFFFFF10
:2060000000FC002075BA0008F1BA00087DBB0008E9BB0008EBBB0008EDBB00080000000030
:20602000000000000000000000000000EFBB0008F1BB000800000000F3BB0008F5BB00088C
:20604000C5BA0008C5BA000821BC0008C5BA0008C5BA0008C5BA000877BC00087DBC00083C
:2060600083BC000889BC00088FBC00082DBC000839BC000845BC000851BC0008C5BA0008A6
:20608000C5BA0008C5BA0008C5BA0008C5BA0008C5BA0008C5BA000895BC0008C5BA0008F6
:2060A000C5BA0008C5BA0008C5BA0008C5BA0008C5BA0008C5BA0008C5BA0008C5BA0008A8
:2060C00041BD00084DBD0008C5BA0008C5BA00085DBC000875BC000829BD0008C5BA0008CB
:2060E000C5BA0008D5BC000809BC0008C5BA0008C5BA0008C5BA0008C5BA0008C5BA000810
:20610000C5BA0008C5BA000815BC0008C5BA0008C5BA0008C5BA0008C5BA0008C5BA0008F5
:20612000C5BA0008C5BA0008C5BA0008C5BA0008C5BA0008C5BA0008000000000000000035
:2061400010B5054C237833B9044B13B10448AFF300800123237010BDD00D002000000000A0
:2061600044D0020808B5034B1BB103490348AFF3008008BD00000000D40D002044D002088D
:2061800010F8012B11F8013B012A28BF9A42F7D0D01A7047034613F8012B002AFBD1181A88
:2061A0000138704700000000000000000000000001F0FF01102A2BDB10F0070F08D010F8C8
:2061C000013B013A8B422DD010F0070F42B3F6D1F0B441EA012141EA014122F007047FF0C2
:2061E00000070023F0E80256083C85EA010586EA010685FA47F5A3FA87F586FA47F6A5FAE5
:2062000087F68EB9EED1F0BC01F0FF0102F0070232B110F8013B013A83EA010313B1F8D103
:206220000020704701387047002D06BF35460338073815F0010F07D1013015F4807F02BFC9
:20624000013015F4C03F0130F0BC0138704700BF81F0004102E000BF83F0004330B54FEA52
:2062600041044FEA430594EA050F08BF90EA020F1FBF54EA000C55EA020C7FEA645C7FEA6D
:20628000655C00F0E2804FEA5454D4EB5555B8BF6D420CDD2C4480EA020281EA030382EAD7
:2062A000000083EA010180EA020281EA0303362D88BF30BD11F0004F4FEA01314FF4801C5F
:2062C0004CEA113102D0404261EB410113F0004F4FEA03334CEA133302D0524263EB43032D
:2062E00094EA050F00F0A780A4F10104D5F1200E0DDB02FA0EFC22FA05F2801841F100019B
:2063000003FA0EF2801843FA05F359410EE0A5F120050EF1200E012A03FA0EFC28BF4CF0EE
:20632000020C43FA05F3C01851EBE37101F0004507D54FF0000EDCF1000C7EEB00006EEBB8
:206340000101B1F5801F1BD3B1F5001F0CD349085FEA30004FEA3C0C04F101044FEA445250
:2063600012F5800F80F09A80BCF1004F08BF5FEA500C50F1000041EB045141EA050130BDB5
:206380005FEA4C0C404141EB0101013C28BFB1F5801FE9D291F0000F04BF01460020B1FA24
:2063A00081F308BF2033A3F10B03B3F120020CDA0C3208DD02F1140CC2F10C0201FA0CF013
:2063C00021FA02F10CE002F11402D8BFC2F1200C01FA02F120FA0CFCDCBF41EA0C01904091
:2063E000E41AA2BF01EB0451294330BD6FEA04041F3C1CDA0C340EDC04F11404C4F12002E4
:2064000020FA04F001FA02F340EA030021FA04F345EA030130BDC4F10C04C4F1200220FA69
:2064200002F001FA04F340EA0300294630BD21FA04F0294630BD94F0000F83F4801306BF22
:2064400081F480110134013D4EE77FEA645C18BF7FEA655C29D094EA050F08BF90EA020F87
:2064600005D054EA000C04BF1946104630BD91EA030F1EBF0021002030BD5FEA545C05D131
:206480004000494128BF41F0004130BD14F580043CBF01F5801130BD01F0004545F0FE4146
:2064A00041F470014FF0000030BD7FEA645C1ABF194610467FEA655C1CBF0B46024650EA7B
:2064C000013406BF52EA033591EA030F41F4002130BD00BF90F0000F04BF0021704730B5B0
:2064E0004FF4806404F132044FF000054FF0000150E700BF90F0000F04BF0021704730B5C1
:206500004FF4806404F1320410F0004548BF40424FF000013EE700BF42004FEAE2014FEAA0
:2065200031014FEA02701FBF12F07F4393F07F4F81F06051704732F07F4208BF704793F0CE
:206540007F4F04BF41F40021704730B54FF4607401F0004521F000411CE700BF50EA01021A
:2065600008BF704730B54FF000050AE050EA010208BF704730B511F0004502D5404261EBFF
:2065800041014FF4806404F132045FEA915C3FF4D8AE4FF003025FEADC0C18BF03325FEAAE
:2065A000DC0C18BF033202EBDC02C2F1200300FA03FC20FA02F001FA03FE40EA0E0021FAF2
:2065C00002F11444BDE600BF70B54FF0FF0C4CF4E06C1CEA11541DBF1CEA135594EA0C0FC5
:2065E00095EA0C0F00F0DEF82C4481EA030621EA4C5123EA4C5350EA013518BF52EA033548
:2066000041F4801143F4801338D0A0FB02CE4FF00005E1FB02E506F00042E0FB03E54FF036
:206620000006E1FB03569CF0000F18BF4EF0010EA4F1FF04B6F5007F64F5407404D25FEA72
:206640004E0E6D4146EB060642EAC62141EA55514FEAC52040EA5E504FEACE2EB4F1FD0C36
:2066600088BFBCF5E06F1ED8BEF1004F08BF5FEA500E50F1000041EB045170BD06F0004646
:2066800046EA010140EA020081EA0301B4EB5C04C2BFD4EB0C0541EA045170BD41F480116A
:2066A0004FF0000E013C00F3AB8014F1360FDEBF002001F0004170BDC4F10004203C35DAA8
:2066C0000C341BDC04F11404C4F1200500FA05F320FA04F001FA05F240EA020001F000424B
:2066E00021F0004110EBD37021FA04F642EB06015EEA430E08BF20EAD37070BDC4F10C0422
:20670000C4F1200500FA04F320FA05F001FA04F240EA020001F0004110EBD37041F10001DF
:206720005EEA430E08BF20EAD37070BDC4F1200500FA05F24EEA020E20FA04F301FA05F269
:2067400043EA020321FA04F001F0004121FA04F220EA020000EBD3705EEA430E08BF20EA11
:20676000D37070BD94F0000F0FD101F00046400041EB010111F4801F08BF013CF7D041EAF7
:20678000060195F0000F18BF704703F00046520043EB030313F4801F08BF013DF7D043EA72
:2067A0000603704794EA0C0F0CEA135518BF95EA0C0F0CD050EA410618BF52EA4306D1D156
:2067C00081EA030101F000414FF0000070BD50EA410606BF1046194652EA430619D094EAC5
:2067E0000C0F02D150EA013613D195EA0C0F05D152EA03361CBF104619460AD181EA030197
:2068000001F0004141F0FE4141F470014FF0000070BD41F0FE4141F4780170BD70B54FF015
:20682000FF0C4CF4E06C1CEA11541DBF1CEA135594EA0C0F95EA0C0F00F0A7F8A4EB0504B2
:2068400081EA030E52EA03354FEA013100F088804FEA03334FF0805545EA131343EA12636B
:206860004FEA022245EA111545EA10654FEA00260EF000419D4208BF964244F1FD0404F577
:20688000407402D25B084FEA3202B61A65EB03055B084FEA32024FF480104FF4002CB6EBC5
:2068A000020E75EB030E22BFB61A754640EA0C005B084FEA3202B6EB020E75EB030E22BFE2
:2068C000B61A754640EA5C005B084FEA3202B6EB020E75EB030E22BFB61A754640EA9C0083
:2068E0005B084FEA3202B6EB020E75EB030E22BFB61A754640EADC0055EA060E18D04FEAC0
:20690000051545EA16754FEA06164FEAC30343EA52734FEAC2025FEA1C1CC0D111F4801FAA
:206920000BD141EA00014FF000004FF0004CB6E711F4801F04BF01430020B4F1FD0C88BF28
:20694000BCF5E06F3FF6AFAEB5EB030C04BFB6EB020C5FEA500C50F1000041EB045170BDF0
:206960000EF0004E4EEA113114EB5C04C2BFD4EB0C0541EA045170BD41F480114FF0000EE1
:20698000013C90E645EA060E8DE60CEA135594EA0C0F08BF95EA0C0F3FF43BAF94EA0C0F80
:2069A0000AD150EA01347FF434AF95EA0C0F7FF425AF104619462CE795EA0C0F06D152EAE1
:2069C00003353FF4FDAE1046194622E750EA410618BF52EA43067FF4C5AE50EA41047FF42E
:2069E0000DAF52EA43057FF4EBAE12E74FF0FF3C06E000BF4FF0010C02E000BF4FF0010CFA
:206A00004DF804CD4FEA410C7FEA6C5C4FEA430C18BF7FEA6C5C1BD001B050EA410C0CBF2B
:206A200052EA430C91EA030F02BF90EA020F0020704710F1000F91EA030F58BF994208BFC5
:206A400090422CBFD8176FEAE37040F0010070474FEA410C7FEA6C5C02D150EA013C07D11D
:206A60004FEA430C7FEA6C5CD6D152EA033CD3D05DF8040B704700BF8446104662468C4624
:206A80001946634600E000BF01B5FFF7B7FF002848BF10F1000F01BD4DF808EDFFF7F4FFCD
:206AA0000CBF012000205DF808FB00BF4DF808EDFFF7EAFF34BF012000205DF808FB00BF4F
:206AC0004DF808EDFFF7E0FF94BF012000205DF808FB00BF4DF808EDFFF7CEFF94BF01208B
:206AE00000205DF808FB00BF4DF808EDFFF7C4FF34BF012000205DF808FB00BF4FEA410C9B
:206B00007FEA6C5C02D150EA013C0AD14FEA430C7FEA6C5C02D152EA033C02D14FF0000006
:206B200070474FF0010070474FEA410212F5001215D211D56FF47873B3EB625212D94FEA81
:206B4000C12343F0004343EA505311F0004F23FA02F018BF404270474FF00000704750EA6C
:206B6000013005D111F0004008BF6FF0004070474FF00000704700BF4FEA4102B2F1E043B9
:206B800024BFB3F5001CDCF1FE5C0DD901F0004C4FEAC0024CEA5070B2F1004F40EB830073
:206BA00008BF20F00100704711F0804F21D113F13872BCBF01F00040704741F480114FEA74
:206BC0005252C2F11802C2F1200C10FA0CF320FA02F018BF40F001004FEAC1234FEAD323FC
:206BE00003FA0CFC40EA0C0023FA02F34FEA4303CCE77FEA625307D150EA01331EBF4FF096
:206C0000FE4040F44000704701F0004040F0FE4040F40000704700BF80F0004002E000BF71
:206C200081F0004142001FBF5FEA410392EA030F7FEA226C7FEA236C6AD04FEA1262D2EBD4
:206C40001363C1BFD218414048404140B8BF5B42192B88BF704710F0004F40F4000020F0E1
:206C60007F4018BF404211F0004F41F4000121F07F4118BF494292EA030F3FD0A2F1010210
:206C800041FA03FC10EB0C00C3F1200301FA03F100F0004302D5494260EB4000B0F5000F19
:206CA00013D3B0F1807F06D340084FEA310102F10102FE2A51D2B1F1004F40EBC25008BF8C
:206CC00020F0010040EA03007047490040EB0000013A28BFB0F5000FEDD2B0FA80FCACF1F3
:206CE000080CB2EB0C0200FA0CF0AABF00EBC25052421843BCBFD0401843704792F0000F5C
:206D000081F4000106BF80F400000132013BB5E74FEA41037FEA226C18BF7FEA236C21D085
:206D200092EA030F04D092F0000F08BF0846704790EA010F1CBF0020704712F07F4F04D1B3
:206D4000400028BF40F00040704712F100723CBF00F50000704700F0004343F0FE4040F4F1
:206D6000000070477FEA226216BF08467FEA23630146420206BF5FEA412390EA010F40F4A2
:206D8000800070474FF0000304E000BF10F0004348BF40425FEA000C08BF704743F096432C
:206DA00001464FF000001CE050EA010208BF70474FF000030AE000BF50EA010208BF7047F0
:206DC00011F0004302D5404261EB41015FEA010C02BF84460146002043F0B64308BFA3F1B9
:206DE0008053A3F50003BCFA8CF2083AA3EBC25310DB01FA02FC634400FA02FCC2F12002B4
:206E0000BCF1004F20FA02F243EB020008BF20F00100704702F1200201FA02FCC2F12002C6
:206E200050EA4C0021FA02F243EB020008BF20EADC7070474FF0FF0C1CEAD0521EBF1CEA64
:206E4000D15392EA0C0F93EA0C0F6FD01A4480EA010C400218BF5FEA41211ED04FF0006377
:206E600043EA501043EA5111A0FB01310CF00040B1F5000F3EBF490041EAD3715B0040EAFE
:206E8000010062F17F02FD2A1DD8B3F1004F40EBC25008BF20F00100704790F0000F0CF0B7
:206EA000004C08BF49024CEA502040EA51207F3AC2BFD2F1FF0340EAC250704740F400000D
:206EC0004FF00003013A5DDC12F1190FDCBF00F000407047C2F10002410021FA02F1C2F198
:206EE000200200FA02FC5FEA310040F1000053EA4C0308BF20EADC70704792F0000F00F0EC
:206F0000004C02BF400010F4000F013AF9D040EA0C0093F0000F01F0004C02BF490011F4F9
:206F2000000F013BF9D041EA0C018FE70CEAD15392EA0C0F18BF93EA0C0F0AD030F0004C29
:206F400018BF31F0004CD8D180EA010000F00040704790F0000F17BF90F0004F084691F0EF
:206F6000000F91F0004F14D092EA0C0F01D142020FD193EA0C0F03D14B0218BF084608D10A
:206F800080EA010000F0004040F0FE4040F40000704740F0FE4040F4400070474FF0FF0C1A
:206FA0001CEAD0521EBF1CEAD15392EA0C0F93EA0C0F69D0A2EB030280EA010C49024FEAAD
:206FC000402037D04FF0805343EA111143EA10130CF000408B4238BF5B0042F17D024FF449
:206FE000000C8B4224BF5B1A40EA0C00B3EB510F24BFA3EB510340EA5C00B3EB910F24BFC0
:20700000A3EB910340EA9C00B3EBD10F24BFA3EBD10340EADC001B0118BF5FEA1C1CE0D19A
:20702000FD2A3FF650AF8B4240EBC25008BF20F0010070470CF0004C4CEA50207F32C2BF3C
:20704000D2F1FF0340EAC250704740F400004FF00003013A37E792F0000F00F0004C02BF1B
:20706000400010F4000F013AF9D040EA0C0093F0000F01F0004C02BF490011F4000F013B5A
:20708000F9D041EA0C0195E70CEAD15392EA0C0F08D142027FF47DAF93EA0C0F7FF470AFDC
:2070A000084676E793EA0C0F04D14B023FF44CAF08466EE730F0004C18BF31F0004CCAD14F
:2070C00030F000427FF45CAF31F000437FF43CAF5FE700BF4FF0FF3C06E000BF4FF0010C9E
:2070E00002E000BF4FF0010C4DF804CD4FEA40024FEA41037FEA226C18BF7FEA236C11D0EE
:2071000001B052EA530C18BF90EA010F58BFB2EB030088BFC81738BF6FEAE17018BF40F03D
:20712000010070477FEA226C02D15FEA402C05D17FEA236CE4D15FEA412CE1D05DF8040BCA
:20714000704700BF844608466146FFE70FB5FFF7C9FF002848BF10F1000F0FBD4DF808ED4D
:20716000FFF7F4FF0CBF012000205DF808FB00BF4DF808EDFFF7EAFF34BF012000205DF861
:2071800008FB00BF4DF808EDFFF7E0FF94BF012000205DF808FB00BF4DF808EDFFF7D2FF72
:2071A00094BF012000205DF808FB00BF4DF808EDFFF7C8FF34BF012000205DF808FB00BFE2
:2071C0004FEA40024FEA41037FEA226C02D15FEA402C08D17FEA236C02D15FEA412C02D10B
:2071E0004FF0000070474FF00100704742000ED2B2F1FE4F0BD34FF09E03B3EB126209D4E3
:207200004FEA002343F0004323FA02F070474FF00000704712F1610F01D1420202D14FF045
:20722000FF3070474FF00000704700BF53B94AB9002908BF00281CBF4FF0FF314FF0FF30D4
:2072400000F06CB9ADF1080C6DE904CE00F006F8DDF804E0DDE9022304B070472DE9F047F5
:20726000089E0D4604468E46002B40F082808A42174646D9B2FA82F24AB1C2F1200105FA64
:2072800002F320FA01F1974041EA030E94404FEA1748230CBEFBF8FCB9B208FB1CEE43EAED
:2072A0000E430CFB01F098420AD9FB180CF1FF3580F01681984240F21381ACF1020C3B44B3
:2072C0001B1AA4B2B3FBF8F008FB103344EA034400FB01F1A14209D93C1900F1FF3380F038
:2072E0000181A14240F2FE8002383C44641A40EA0C4000211EB1D4400023C6E90043BDE80D
:20730000F08702B9FFDEB2FA82F2002A4FD1CB1B4FEA174E1FFA87F80121B3FBFEFC250CDD
:207320000EFB1C3345EA034508FB0CF3AB4207D97D190CF1FF3002D2AB4200F2E780844609
:20734000ED1AA3B2B5FBFEF00EFB105543EA054408FB00F8A04507D93C1900F1FF3302D243
:20736000A04500F2D7801846A4EB080440EA0C40C0E78B4208D9002E00F0AF800021C6E9FE
:2073800000050846BDE8F087B3FA83F100294BD1AB4202D3824200F2B780841A65EB030375
:2073A00001209E46002EAAD0C6E9004EA7E7C2F1200C01FA02F3974020FA0CF04FEA174E3B
:2073C00021FA0CFC1843BCFBFEF1050C0EFB11CC1FFA87F845EA0C4501FB08F3AB4204FA98
:2073E00002F409D97D1901F1FF3C80F08B80AB4240F2888002393D44EB1A85B2B3FBFEF0BC
:207400000EFB103345EA034500FB08F3AB4207D97D1900F1FF3C71D2AB426FD902383D44F1
:20742000EB1A40EA014178E7C1F1200C8B4022FA0CF71F4320FA0CF405FA01F34FEA174EA7
:2074400025FA0CF51C43230CB5FBFEF91FFA87F80EFB195543EA054509FB08FAAA4502FA60
:2074600001F200FA01F308D97D1909F1FF3047D2AA4545D9A9F102093D44A5EB0A05A4B24A
:20748000B5FBFEF00EFB105544EA054400FB08F8A04507D93C1900F1FF352DD2A0452BD947
:2074A00002383C4440EA0940A4EB0804A0FB02894C45C6464D4619D316D05EB1B3EB0E021F
:2074C00064EB050404FA0CFCCA404CEA0202CC40C6E900240021BDE8F087314630460EE70C
:2074E000AC46EDE6184601E74345E6D2B8EB020E69EB07050138E0E72846D3E760468FE7EA
:207500008146BAE7614677E708464BE7ACF1020C3D4415E702383C4426E700BF704700BF5A
:207520002DE9F04F14228BB000210DEB020002F083F95D4B1B78012B14D15C4E3278062A2C
:2075400000F0A38000228DF81420327802F0FF01002A5FD03278022AD1B204BF8DF8153062
:207560000B465AE0022B40F09080514C2278072A00F08B80207800210122032803918DF890
:2075800010108DF80C2040F085808DF80D10494D49482A88DFF83CB1DFF81CA10AA9194402
:2075A000C2F3072201F81C2C9E1C0AA9013351FA83F32A8803F81C2CF6B24049324624F098
:2075C000C5FA0DF10C080027C14618F8012B59465046013724F0BAFABE42F6DC364824F0D7
:2075E000A3FA374B37481F7824F05DFA0123CDE900034A4634483B46314624F017FA0028BD
:207600004FD032492C4824F09FFA0723237000232B803AE08DF8151002230AAA1A44002405
:2076200002F8144C9D1C0AAA013352FA83F3EDB22249214803F8144C2A4624F087FADFF8E3
:207640009490DFF8748005AF17F8012B49464046013424F07BFAA542F6DC174824F064FAEF
:20766000174B18481C7824F01EFA0123CDE9000305AA15482346294624F0D8F940B1134995
:207680000D4824F061FA062333700BB0BDE8F08F0F49F5E7217805290CBF8DF80D201346AA
:2076A00075E70B49AEE700BF18000020090000200A00002010340020FC7F002084D10208DD
:2076C00006000020C0800020B8800020A5D10208BAD102089DD1020873B522492248234CD3
:2076E00024F032FA254626781EB10A2024F0ECF8F9E701231E4A23701E481F4C137001F00C
:20770000DDFA1C4831220DF1070101F041FA2378012B11D1194B1A78022A04D0184912484F
:207720001E7024F0E1F92178124801F0EDFA2B78013B2B7002B070BD022BF4D1114A0A480A
:207740001378052B18BF03210F4B18BF11701A880E49013292B21A801A8892B224F0F6F9CE
:20776000E1E700BFC9D10208FC7F00203E3400200E3400202A340020180000200900002070
:20778000D9D102080A00002010340020EDD1020837B51F491F48204C24F0D6F925462378CF
:2077A0001BB10A2024F090F8F9E701231B4A23701B481C4C137001F081FA194835220DF1CB
:2077C000070101F0E5F92378012B0FD1164B1749104802221A7024F087F92178104801F0EE
:2077E00093FA2B78013B2B7003B030BD022BF4D10F4B1049074805221A700F4A1388013315
:207800009BB21380128892B224F0A0F9E5E700BF12D20208FC7F00203E3400200F340020F4
:207820002A340020180000200900002022D202080A00002037D2020810340020064B1B78E6
:207840002BB9064B1B782BB9054824F022BA054824F002BC704700BF040000203E340020F4
:207860004C800020B68000202DE9F8434B0007330C468046DB08481E6946A1EBC30300AFDF
:207880009D46EC4604F1010E00239C4205DD38F813102CF813100133F7E74FF000094D4665
:2078A0004C450DDD764600233CF81310914220D0B64508BF1E4698422AD148B301461AE01D
:2078C00017491848DFF86490164E24F03FF90025AC4207DD38F815204946304624F036F9C9
:2078E0000135F5E710490F4824F030F9BD46BDE8F8836BB1591EB1420AD3314449083CF809
:20790000116028F815602CF811200135ADB2764601339C42C8DCA542D2D809F10109BFE7CA
:207920005DD20208FC7F0020C9D2020873D20208344B2DE9F3474FF4706206461F4640F6B4
:20794000017133F8020B884226D12F4BDFF8D480DFF8D490DFF8D4A000241C8025466A46B6
:2079600008EBC400082123F029FDBDF800300134C3F30B02AEB9A2421FD1244A019B126852
:2079800093421AD9224A1268934216D26B1C621E27F815209DB210E0013A23F8021CD0D1CD
:2079A000D3E7012E18D1A24207D11A4A12889A4203D8194A12889A42E8D2B4F5706FCED1CA
:2079C000043E012E05D80F4840F601722946FFF74BFF02B0BDE8F087042E08D1A242ECD130
:2079E0000E4A019B12689342E7D90D4ACBE7052EE3D1A242E1D1B9F800209A42DDD8BAF8EA
:207A00000020D8E70C1600200C340020443400200416002040340020FE15002048340020B0
:207A20000816002010600308423400200016002008B524F06AF9024B002218605A6008BD27
:207A40002034002038B524F060F9084AD2E90032C41A074B62EB4205D3E900239D4208BFD0
:207A600094422CBF0120002038BD00BF203400201000002010B50C4C48B90C490C4824F0D1
:207A800063F802232370BDE81040FFF7D1BF0949074824F059F803232370FFF7D3FF08B118
:207AA0000023237010BD00BF2834002077D20208FC7F0020BAD1020810B5074C07492046B7
:207AC00023F0D9FF0649204623F0DDFF20460549BDE8104023F0DFBFB8800020BD80000820
:207AE000417F0008757A000870B50121142024F0E9F80121142024F0FCF8C82023F0E4FE1C
:207B00000A2024F0C3FB0121142024F0DBF823F0FEFE042896BF244B4FF0894653F8206054
:207B200023F0F7FE132024F0A7FB05461F4824F04DFA0446A8B2FFF729F92146FFF77AF9BB
:207B40003146FFF72BFA1A490646FFF773F9314605462046FFF764F801462846FFF71EFA45
:207B600003F0B4FD0446642023F0AEFE0021142024F0BFF82046FEF7CFFC07A3D3E9002305
:207B8000FEF722FD02460B4605A1D1E90001FEF763FBFEF7F1FF70BDAE47E17A142E394067
:207BA000BA490C022B3F5540E4D60208B18000200000204102461021014823F0FFBB00BFF1
:207BC000006003082DE9F04385B006460C463948174610216A4623F0F1FB009B013304BFCE
:207BE0000023009387B3B4F5806F46D2324FDFF8D8803D882B19B3F5806F08EBC5001FFAC4
:207C000084F909D2E20031464D4401F007FE3D80002005B0BDE8F083C4F58062D20031469E
:207C200001F0FCFDBDF80230244805F58065A5EB090503F580633D80ADF8023042464FF450
:207C4000006123F027FCE4E7BDF800301A19B2F5706FA5B215D21A481044E1003246C00017
:207C600023F018FCBDF800100D44ADB2B5F5706F34BFADF80050ADF800700E486A461021AB
:207C8000DFE71048C3F5706118443246C900C00023F000FCBDF800100848A1F570612944E8
:207CA00089B2C1F57062ADF800103244C90023F0F1FBE2E700600308FC150020106003082E
:207CC000016C0001026C0001FC0D0020F0B5804980488FB023F038FFFFF706FF7E490446D3
:207CE000FFF7A8F82146FFF7A5F87C4905462046FFF7A0F801462846FEF794FF7849FEF7FD
:207D00008FFF0546774824F061F904462846FEF703FC02460B466F48734923F017FF204616
:207D2000FEF7FAFB02460B466A48704923F00EFF6F4823F0CEFE044698B96E49654823F08D
:207D400003FF032300936C4807232246012123F052FE002840F0AF8068495E4823F0F6FEB8
:207D6000A9E005A8FFF726FFBDF81420644C654958484FF6FF739A4204BF0023ADF8143069
:207D8000BDF81420013292B2228023F0DFFE23881022B3F5706F4FF000014FF000030AA859
:207DA00088BF2380099301F047FD23885649574C43F4A0432846ADF80C30FFF73BF8FFF793
:207DC00015FAADF80E0023F0A0FF4FF47A730022B0FBF3F00121049003A8FFF7F3FEBDF852
:207DE0000C30BDF810205BBAADF82430049B190E1B0C8DF82730BDF80E308DF8261052BAD1
:207E00005BBAADF82820ADF82A3023F07EFFD4E90021861A61EB4107002144F62060B942E9
:207E200008BFB04217D23A4B3A481D7823F03BFE0123CDE9000309AA2F482B46082123F004
:207E4000F5FD70B33449234823F07EFE23F05DFF00232060636031491E48314F1D4E0822CC
:207E600023F074FE09AC002514F8012B39463046013523F06BFE082DF6D1164823F054FE05
:207E800001F02CF982070ED5264B1B78062B0AD0254A26480023022124F0C1F868B92449D3
:207EA0005BE72449CFE701F019F9430703D5224B1B78072BECD10FB0F0BD1C48002341F61F
:207EC0005832022124F0B5F80028F4D11B4944E700D30208FC7F0020EA784C3BDF4F6D3F7D
:207EE0009A99993FB180002011D3020827D30208C380002089D20208B8800020AFD2020889
:207F0000F80D002039D3020800002041F00D002007000020C0800020A5D1020884D1020842
:207F20009DD102080900002021750008B580002047D30208BAD102080A00002060D302088D
:207F4000024638B517490446174823F0FFFD174A24BB01251570FFF76BFD2146144824F0B4
:207F600072F8144A12482B46214624F058F838B911490D4823F0EAFDBDE83840FFF7A6BE92
:207F80000E4B0B481A684EF660214A432346214624F04FF80028EFD10949EAE70023137085
:207FA00038BD00BF79D30208FC7F002028340020B5800020CD7C000847D302084C34002036
:207FC00060D302081144B1F5706F10B4134607D2054C0C440246D900E00010BC23F0EEB96C
:207FE0006FF0080010BC7047016C000110B5284928488AB023F0AAFD0021102206A80591F8
:2080000001F01AFC244A2549138831F8131040F60170814209D122491E4823F095FD214873
:20802000012124F010F80AB010BD0133138003A80122FFF7C7FFBDF80C30BDF810201A48F2
:208040005BBAADF81430049B190E1B0C8DF81730BDF80E308DF816105BBAADF81A30134B69
:2080600052BA1C78ADF8182023F01DFD0123CDE9000305AA0E482346082123F0D7FC20B12B
:208080000C49044823F060FDCDE70B49F9E700BF8BD30208FC7F00200C3400200C16002083
:2080A00097D30208B5800020C080002008000020B8800020A5D10208BAD10208F7B5037AD9
:2080C0000446002B00F02982A649A748A74FA64E23F03CFD0025237AAB4207DD636839469F
:2080E0005A5D304623F032FD0135F4E7A0499E4823F02CFD62681378062B00F20C82DFE828
:2081000013F007004F006C00C300A801D001EC01237A092B06D09749934803B0BDE8F04086
:2081200023F014BD00F0DAFFC60740F1F6816368D9781A7902EB0122997802EB014259784C
:2081400002EB01628C490A60D9791A7A02EB012299795B7902EB014202EB0363874A1360ED
:2081600023F0D3FD8648012123F06DFF0020FFF7DFFBFFF73BFF0123824A8148194623F062
:208180004EFF08B98049C7E77D48002341F65832012123F04EFF002840F0BF817B49BBE731
:2081A000237A052B01D07A49B6E700F097FFC50740F1B3816368724859789A7802EB012292
:2081C00074490A80DA781B7903EB0223724A0121138023F038FF0120C9E7237A032B01D037
:2081E0006E4999E7517893786D4D03EB01239BB25A1EB2F5B46F36D36A495B4823F0A6FC05
:2082000000215F4823F01FFF674A5D480123002123F005FF48BB5C49534823F097FC634B1C
:208220006348267A1F78646823F03DFC614B1B782246CDE9000331465F483B4623F0F6FB41
:2082400000B35E49484823F07FFC5D4B2A885D4945481A6023F07AFC4FF40E4003B0BDE82D
:20826000F04000F0F5BD2B80CAE72A8844484EF6602100234A43194623F0DBFE0028CED10B
:208280004249C9E75049DDE7277A022F01D04F4942E700F023FF63684D4E5B7813F0020F83
:2082A000054634D001234B492F48337023F04EFC49492D4823F04AFC05F0FB0545F00105B0
:2082C000464904220A2023F05BFC454904221E2023F056FC63685B78D9073BD5414922487C
:2082E00023F034FC45F0010000F0FEFE3E4B3F4D06221A703E4B07221A703E4B00221A80D1
:208300002B78002B7ED00A2023F0DEFAF8E758070DD539491448377005F0FE0523F016FC6A
:208320003649114823F012FC45F00405C8E7012331490D48337023F009FC27490A4823F0D4
:2083400005FC0A2023F039FC1E2005F0FA0523F034FCBFE72A49044823F0F8FB05F0FE00D7
:20836000C2E700BFACD30208FC7F0020C0D30208C9D20208C6D302084434002004160020BA
:20838000B5800020ED7F000847D3020860D30208DBD3020840340020FE150020F0D3020867
:2083A0001C34002005D40208CD7C000805000020C08000203F340020B8800020A5D1020829
:2083C0004C34002024D40208BAD1020846D40208180000205BD4020875D40208917700086E
:2083E000D9760008C3D40208090000203E3400200A000020103400208FD40208AAD4020847
:20840000DDD40208012346482B7000F057FC3178434800F079FC2B78013B2B70414B4248E8
:20842000257A1E78646823F03EFB404B1B782246CDE9000329463E48334623F0F7FA30B15D
:208440003C493D4803B0BDE8F04023F07DBB3B49F7E7237A092B01D039495DE600F03EFE4A
:20846000C2075AD563683748D9781A7902EB0122997802EB0142597802EB016232490A607F
:20848000D9791A7A02EB012299795B7902EB014202EB03632D4A0121136023F0D4FD042069
:2084A00065E6257A052D01D0294935E600F016FEC30732D56368234859789A7802EB012244
:2084C00024490A80DA781B7903EB0223224A0121138023F0B8FD284649E6237A022B01D08B
:2084E0001E4919E65178012904D91D49124823F02DFB93E739B90C4823F0DCFA08B919497F
:208500000AE61949F2E70848012123F0D3FA0028F5D01649EAE71649FEE503B0F0BD00BF60
:208520002A34002005000020C08000203F340020B8800020A5D10208FC7F0020BAD102089D
:20854000F8D40208B580002048340020081600200DD50208423400200016002022D502085D
:2085600037D5020856D5020880D502088ED502089CD5020810B5084C08481922002100F0B4
:2085800061FAFF21204600F0D1FD2046044A0549BDE8104001F0ECB8143400202A340020CA
:2085A0000000002045910008F8B504460D461148104F5021164623F045FCC4F307210D4866
:2085C00023F0D8FBE1B20B4823F0D4FB0024A3B29E4204F1010404D9E95C384623F0CAFB22
:2085E000F5E70448012123F039FCBDE8F8400A2023F06AB98C7F0020F8B504460D461348DC
:20860000124F5021164623F01DFCC4F307210F4823F0B0FBE1B20D4823F0ACFB01210B48F5
:2086200023F01CFC09483246502123F0F9FB0024064823F07FFB661C30B1384623F084FB5C
:20864000A4B228553446F3E7F8BD00BF8C7F002070B51C4B8EB06A4603F1180614461868EE
:208660005968154603C50833B3422A46F7D11B782B700021152208A8079101F0DDF82046B4
:20868000FDF788FD214602461020FFF78DFF4FF4FA7023F019F92046FDF77CFD07A9024663
:2086A0001020FFF7A9FF4FF4FA7023F00DF9192207A9204601F0A4F8B0FA80F040090EB027
:2086C00070BD00BFAFD5020808B501211D2023F0F9FA00211D2023F00CFB642023F0F4F803
:2086E000BDE80840FFF7B4BF7FB50223A748A84DA84C06224FF4E13123F058FDA64AA7492E
:20870000A24823F023FA4FF4FA7023F0DDF800F033FC00F0A9FC00F085FB0121142023F01D
:20872000D1FA0121132023F0CDFA0021142023F0E0FA0021132023F0DCFA02210B2023F05F
:20874000C1FA02210C2023F0BDFA03210A2023F0B9FA03211E2023F0B5FA00F025FC904923
:20876000904A2870002818BF0A4603468E49874823F0ECF94FF40E4000F0D8FB22688B499F
:20878000824823F0E3F92E78002E62D0884823F01DFCFDF7C1FE02460B467C48854923F02D
:2087A000D5F9FFF7A1F984490446FEF743FB2146FEF740FB814905462046FEF73BFB01468D
:2087C0002846FEF72FFA7E497E4CFEF729FAFDF7A3FE0B4602467C496C4823F0B7F90023D7
:2087E000A380638120468DF80F30637200F066FA30B39DF80F207549644823F0A7F9FFF769
:2088000063FF20B37249614823F09EF90021152023F058FA0221152022F0DCFF152023F0CD
:208820006DFA01280CBF6B496B49584823F08CF96A4823F050F908B1FFF73EF904B070BD68
:208840000F220DEB0201204600F0A2F9D1E76449D9E7FFF731F93146152023F033FA0221A7
:20886000152022F0B7FF152023F048FA0128054641D15C49454823F067F9152229465A48FE
:2088800023F00FFA584823F004FA58493F4823F05BF9152022F0ACFF4FF4FA7023F014F8BE
:2088A000152023F02BFA014650B35149374823F04BF942F2107023F007F84E4A4E48012379
:2088C000002123F0ACFBF8B94C49304823F03EF900F0E0FB00F002FC10F0020F484D04460C
:2088E0001FD04849294823F031F94749274823F02DF9012320E03D49244823F025F9314654
:20890000152022F067FFD8E722683B484EF6602100234A43194623F08CFB0028D8D13B491B
:20892000D3E763073A491948DDD523F00FF93949164823F00BF902232B70374B00931E2256
:20894000364B20480A2100F0C3F929781D4800F0DBF914F0060F05D10A2023F02EF91E20FC
:2089600023F02BF92E49094823F0EEF8032300932C4807230022012123F03DF800287FF481
:208980005DAF2949014823F0E1F857E7FC7F0020040000204C340020CBD50208D6D5020828
:2089A000C8D502080C000308FBD5020812D60208B1800020D4D20208EA784C3BDF4F6D3F69
:2089C0009A99993F2A340020EDD2020830D602084AD602086AD6020884D60208DB800020E2
:2089E0005AD60208A4D602084C800020B8D60208CAD60208CD7C0008B580002047D30208C1
:208A0000180000205BD4020875D4020860D302088FD40208AAD40208D976000891770008F9
:208A200089D20208B8800020AFD20208192343700A238370017009B942707047012908BF52
:208A40008270704710B50446FFF7F0FF3222E2804FF48172228140F2011200236281142269
:208A6000A380A381A27323826382204610BD0000F8B5077804460E4615461FB1012F15D0D3
:208A8000002012E04178124823F0D0F93146104823F070F929460E4823F06CF90C480121D7
:208AA00023F0DCF9003818BF0120F8BD8078002123F01FF93146074823F037FB29460548DE
:208AC00023F033FBA078394623F013F9D8E700BF8C7F0020F87F002010B5427903799201D0
:208AE00002F0400242EAC312044602F0C0021F21FFF7BEFFE388642B3ED031D8192B3DD0EE
:208B000029D8012B3CD00A2B14BF70232023E27AA17A9200490001F0020102F004020A43B3
:208B20001A43637A03F001031A4342F0080220212046FFF79DFF237A023BDBB2062B9ABF41
:208B4000124AD25C3022204642F08002BDE810402321FFF78DBF322B14BF70234023D6E7C1
:208B6000B3F5C86F0ED041F2883293420CD0C82B14BF70236023CAE75023C8E73023C6E7EB
:208B80001023C4E78023C2E79023C0E7F8D602082DE9F04190F8008005460F46164600240A
:208BA000B8F1000F07D0B8F1010F24D026463C703046BDE8F08141781A4823F037F9314600
:208BC000184823F0D7F80121164823F047F96978144D061E4FF00102124818BF012623F06D
:208BE0001CF9284623F0A6F80028E0D0284623F0ABF8C4B2F5E72146807823F07AF846F0D9
:208C00008001094823F091FA2146074823F08DFA41460446A87823F06CF8FF2C14BF002608
:208C20000526C4E78C7F0020F87F002037B505780446EDB1012D23D000238DF8063042F218
:208C400010739DF80620013B0132D2B29BB28DF80620002BF5D10F220DF107012046FFF767
:208C600097FF9DF80700333818BF012003B030BD0F4823F097F80F490D4823F0A7F8DBE7A5
:208C80002946807823F01EF82946A07823F031F8094823F0E7F90848042123F0F5F9294658
:208CA000054823F0E5F90448032123F01BFAC3E78C7F0020A0860100F87F002038B5054613
:208CC000FFF7B4FF04462846FFF706FF204638BDF8B514461F460D46FFF7A8FF0021064614
:208CE000284622F0EFFF2046002122F0EBFF39462846042222F044FF20460699042222F0DE
:208D00003FFF3046F8BD0000012913B504464AD1434B1F2219702021FFF7AAFE0B222121ED
:208D20002046FFF7A5FE402222212046FFF7A0FE202225212046FFF79BFE0022232120464C
:208D4000FFF796FE0A2224212046FFF791FE0F2232212046FFF78CFE052236212046FFF7E9
:208D600087FE002233212046FFF782FE002237212046FFF77DFE6A2230212046FFF778FE1C
:208D80006A2234212046FFF773FE0DF1070131222046FFF7FDFE35220DF107012046FFF7BC
:208DA000F7FE02B010BD0229EFD11D4B2F2219702021FFF75DFE0B2221212046FFF758FE5F
:208DC000402222212046FFF753FE202225212046FFF74EFE202223212046FFF749FE0A22BC
:208DE00024212046FFF744FE5F2232212046FFF73FFE1F2236212046FFF73AFE0022332181
:208E00002046FFF735FE002237212046FFF730FE2A2230212046FFF72BFE2A22B1E700BFFA
:208E20001900002007B503230193054B0093054B054A0648194623F0D1F803B05DF804FB71
:208E4000958E0008FFD6020808D70208B280002030B5002487B005460E22214602A800F011
:208E6000EBFCB5F50E4F0ED1084B09481B680193AA238DF8083001AA0523294623F0C5F8CE
:208E8000012007B030BD2046FBE700BF4C340020B3800020536E012B70B50E4614D115684B
:208EA0001C492846FDF76CF9044678B12846FDF771F90022824217D0AB5C303B092B11D9EA
:208EC0001549164822F042FE022409E03146134822F01AFE124B13491A68104822F036FEA0
:208EE000204670BD0132E5E70A220021284601F03BFA431EB3F5B46F04D30B49074822F047
:208F000025FEE1E7064B18604FF40E40FFF7A0FF0024E5E7BC10030865D70208FC7F0020CF
:208F20004C34002056D7020874D70208B0F50E4F7FB501460CD101AA0D48052323F05BF81D
:208F40000C4A38B93C234FF40E401360FFF780FF002009E09DF80830AA2BF3D1019B136074
:208F6000013BB3F5B46FEDD207B05DF804FB00BFB38000204C34002008B5074A07480123ED
:208F800048F6056123F037F828B9BDE808400449044822F0A9BD08BD1A000020B3800020BA
:208FA0008BD70208FC7F0020014B1878704700BF1A00002007B501238DF807000DF10702AB
:208FC000064848F6056123F020F818B1044B9DF807201A7003B05DF804FB00BFB3800020FD
:208FE0001A000020536E012B70B50E4602D00224204670BD156816492846FDF7C1F8044605
:2090000098B93146134822F07FFD1349114822F06BFD124B124A1978124B0E48002914BF77
:209020001146194622F090FDE2E72B78303B092BDDD80A220021284601F096F9C0B2012845
:20904000D5D8FFF7B7FF80F00104E4B2D0E700BFBC100308FC7F0020DF0103081A0000209F
:20906000C8D502080C00030807B503230193054B0093054B054A0648194622F0AFFF03B01A
:209080005DF804FBE58F0008ABD70208B1D70208B280002007B5FF238DF807300B4801237F
:2090A0000DF1070248F6066122F0A5FF18B90849084822F019FD9DF80730074AFF2B08BFA6
:2090C0000323137003B05DF804FB00BFB38000208BD70208FC7F00201B000020014B1878B0
:2090E000704700BF1B00002013B501238DF807000DF10702094848F6066122F086FF044669
:2091000030B90749074822F0EFFC204602B010BD054B9DF807201A70F7E700BFB38000205F
:20912000D4D70208FC7F00201B00002038B50446002508462171A57100F052FB65712060BF
:20914000204638BD10B50446006800F051FB204610BD03F041BB03F044BB70474FF0B04304
:2091600082B0DA6C42F00102DA64DB6C03F001030193019B02B0704770B586B0142200217B
:2091800001A800F059FB0024FFF7E8FF0125FFF7E5FF032301A94FF09040CDE903430226DE
:2091A000CDE901550EF02CF901A94FF0904001960EF026F9224631464FF090400EF046FAE7
:2091C000224629464FF090400EF040FA204606B070BD032810B50ED8012811D868B90246D7
:2091E00001214FF090400EF031FA002202214FF090400EF02BFA002010BD01221146F0E760
:20920000002201214FF090400EF020FA0122EDE702207047012070470120704710B59AB054
:209220004822002108A800F007FB1822002102A800F002FB0FF0C6F84FF0B0420024D2F833
:20924000903023F01803C2F89030D2F8003423F4C06343F40073C2F80034D2F80034119433
:2092600003F4C0630193019B2623089381230B93012310934FF480730C9340230D9308A82F
:20928000B023CDE912340FF0EFF908B103F0CEFC4F23022102A8CDE90234CDE90444CDE9C3
:2092A00006440FF081FC08B103F0C0FC1AB010BD13B50378082B11D8DFE803F012828710A5
:2092C0008E8E05109200047920460CF037F820460BF0DEFF002120460CF038F802B010BD4D
:2092E00000200CF02BF8012839D101200CF026F8012804D0012021F0F1FF00283DDC02203F
:209300000CF01CF80128E9D0022021F0E7FF0028E4DD012201A9022021F0A8FE02200CF095
:209320000DF80028F0D1022021F0B4FF00283FD19DF8041002200BF017FFE5E7012201A9AC
:20934000002021F093FE00200BF0F8FF044630B921F0A0FF48B99DF804100BF005FF00208D
:2093600021F0BCFF0028E9DCBFE70128F7D19DF80410204621F0E8FEF1E7012201A910469C
:2093800021F074FE01200BF0D9FF0028B2D1012021F080FF28B99DF8041001200BF0E4FE72
:2093A000A8E70128A6D19DF8041021F0CDFEA1E70128A9D19DF80410022021F0C5FEA3E7A5
:2093C00014F0B8FF05F03EFD88E7074B1B68002B84D04068984781E7406822F025F97DE7B4
:2093E000406822F016FA79E7DC86002030B5284B284A9A6085B00DF02BF9FFF70FFF4FF064
:20940000B0430B209A6C42F004029A649A6C02F004020392039A9A6C42F001029A649B6C82
:20942000002203F0010311460293029B0DF066FD0B200DF095FD22F0D9F80DF095F80CF007
:209440005DF8002401460546234603220120CDE9004421F04BFD2346032229460220CDE92A
:20946000004421F043FD04F075FA05F013FDE5B228460BF063FF10B928460BF009FF01341E
:20948000032CF4D105B0BDE8304022F0CFB800BF00ED00E00060000822F0D6B8F7B5FFF73F
:2094A000A5FF224E224C07F075FE224B341B1427474300251C44BD4216D320F0AEFD1E48B1
:2094C00021F098FD04F0A7FB012822D0022822D010B91A4821F08EFD194C22F0B5F8237893
:2094E000DBB920F09CFDF8E701AA0421601921F065FF01A93246042312F801CB11F8010B5E
:20950000844518BF02F8010C013BF5D104350436D1E70C48DEE70C48DCE70BF055FF0028D0
:20952000DBD0002022F01EF9D7E700BF4C0300200000002088120308F4D7020808D80208C7
:209540005034002014D802081FD80208054808B50823036010F028FA18B1BDE8084003F00D
:2095600065BB08BD448100204FF0B04307B55A6E42F001025A665B6E002203F00103019300
:2095800011463220019B0DF0B9FC322003B05DF804EB0DF0E5BC0000024B9868024BC04350
:2095A000186070470028004054340020014B1868704700BF54340020034B044A9B6810686B
:2095C000DB43181A704700BF0028004054340020034B187810B1034B9868C043704700BF4F
:2095E00051340020002800400320704708B501464FF47A7200238002890DFDF717FE08BD48
:209600004FF47A72A0FB0223900A40EA8350704710B5074B074C0122DA654FF480712046A7
:209620000FF0C0FB4FF0FF332363002010BD00BF00280040C48100200246002101480FF04F
:20964000C6BD00BFC48100200246012101480FF0BEBD00BFC481002010B58CB02C220021A2
:20966000044601A800F0E8F8FFF7D2FF0C4B186800230444089306934FF00053E443079397
:20968000084802944FF48073012201A90B930FF09FFC08B103F0CAFA00200CB010BD00BFD1
:2096A00054340020C48100200C4B70B59C68064602210B480FF092FDE44300221219C2F3A4
